:046800000C940038BC
:1068100084B7877F84BF88E10FB6F89480936000C7
:10682000109260000FBE90E080E80FB6F89480935D
:106830006100909361000FBEC1E0C5BF82E085BFDB
:106840003F9A479803D7C0936F00C093810082E8B6
:106850008093C000C093C1008FEF8093D10080E887
:106860005DD4789480910101882339F082E091E031
:106870000E94BD3D0E94463DF5CF8091820291E08D
:10688000980F909382028F3F89F78091E00081609A
:106890008093E00082E49CED90938E0280938D02C1
:1068A0009CE088E10FB6F894A895809360000FBE35
:1068B00090936000FFCF80E031C480E82FC482E075
:1068C00091E00E94A03D811102C080E801C080E0FB
:1068D00025C482E091E00C945F3DCF93DF93EC01FF
:1068E00080E01CD4CE017ED0C82F80E017D4109257
:1068F00082028C2FDF91CF910895913039F0923040
:1069000051F480E290E02DEE31E009C082E190E0A8
:106910002DE032E004C080E090E020E030E0FA01B9
:106920003183208308959F92AF92BF92CF92DF92DE
:10693000EF92FF920F931F93CF93DF93EC01962E6C
:10694000C8A0DF8C0BA11AA186E5C816D10478F087
:1069500081E65DD480913D01807F856080933D011B
:1069600081E2809347011092480180E02FC081E4CA
:106970004ED45601C6018A199B098017910770F4FD
:10698000C601992031F002D282E741D48C2D3FD448
:1069900001C033D18FEFC81AD80AECCF81E237D4C7
:1069A00020E030E089E0000F111F221F331F8A957D
:1069B000D1F78C899D89AE89BF89801B910BA20B71
:1069C000B30B8C8B9D8BAE8BBF8B81E0DF91CF9116
:1069D0001F910F91FF90EF90DF90CF90BF90AF90FD
:1069E0009F900895EF92FF920F931F93CF93DF93A1
:1069F000EC018B8D8F31A0F48D3108F0BCC0823159
:106A0000E1F138F4882309F4B6C0833009F466C094
:106A1000B7C08A3109F48EC08B3109F4A4C0B0C06C
:106A2000883209F47FC010F5853209F0A9C01092B0
:106A3000F1001092F1001092F10085E58093F100D1
:106A40001092F1001092F10082E08093F100109218
:106A5000F1008091E8008E778093E8008C899D8911
:106A6000AE89BF890897A109B10978C08A3209F4B3
:106A700057C08F3209F47FC083C00F8D1E8D8C8D5F
:106A8000837019F48D8D882341F080913D01807FC2
:106A9000856080933D0184E27AC07801053211055A
:106AA00018F084E2E82EF12C40E050E0B7018FE1CD
:106AB00092E0F4D360E070E0C8018E199F09B0D372
:106AC0008091E8008E778093E8008C899D89AE895B
:106AD000BF898E199F09A109B10940C01F8D012FDF
:106AE000133108F002E1E02EF12C40E050E0B70154
:106AF0008BE391E0D3D3812F90E060E070E08E19BA
:106B00009F098ED38091E8008E778093E8008C896E
:106B10009D89AE89BF89801B9109A109B1091EC059
:106B200060E003C082E573D361E0CE01FCDE882320
:106B3000F1F132C01092F1001092F1001092F100C8
:106B40001092F1008091E8008E778093E8008C89A4
:106B50009D89AE89BF890497A109B1098C8B9D8B52
:106B6000AE8BBF8B19C08F8D837091E0823009F49A
:106B700090E0909301011C8A1D8A1E8A1F8A0CC016
:106B800080913D01807F856080933D0180E280930C
:106B90004701109248010BC080913D01807F809396
:106BA0003D01109247011092480181E001C080E050
:106BB000DF91CF911F910F91FF90EF9008959B016E
:106BC00036952795260FE22FF0E0E80FF91F60FFBA
:106BD0000EC080818F70942F9295907F892B808337
:106BE00084E0569547958A95E1F74183089540835F
:106BF000842F807F852B818308954F925F926F92BF
:106C00007F928F929F92AF92BF92CF92DF92EF923C
:106C1000FF920F931F93CF93DF93CDB7DEB7D25080
:106C20000FB6F894DEBF0FBECDBF8C0140E050E040
:106C300060E072E0CE0101967AD38091E8008B7714
:106C40008093E8000330110508F489C00330110572
:106C500051F480EAFE013196ADE4B1E001900D926D
:106C60008A95E1F77CC08091A7019091A80181509D
:106C7000904C880F991F880F991F0817190778F4EF
:106C80008091E7019091E8018150904C880F991F05
:106C9000880F991F0817190708F043C060C09C01AE
:106CA0002D5C3F4F2017310758F37801E81AF90A95
:106CB000FE2CEE24FF0C67018EEFD81A4701240149
:106CC000612C712CC4018F779927892B19F4C3018A
:106CD000B2014BD2F401EE19FF0981E090E08C0F74
:106CE0009D1FE80FF91F418150E0542F44278081F8
:106CF000482BC301B2015DD2540192E0A90EB11C30
:106D0000C5018F779927892B31F4B4016E5771092A
:106D100080E090E03CD2AC14BD0409F4B1CF450151
:106D2000CECF9C012F5F3F4F20173107C0F0081BCB
:106D3000190B102F0027110FFE0131967F01C12C76
:106D4000D12CF70161917F01C601800F911F67D29D
:106D5000FFEFCF1ADF0AC11482E0D80691F7DE5F99
:106D60000FB6F894DEBF0FBECDBFDF91CF911F915C
:106D70000F91FF90EF90DF90CF90BF90AF909F90DA
:106D80008F907F906F905F904F900895AF92BF92D9
:106D9000CF92DF92EF92FF920F931F93CF93DF93E7
:106DA000CDB7DEB7D2500FB6F894DEBF0FBECDBF61
:106DB0009C01AE014F5F5F4F7A0180E092E0FA01E3
:106DC000AC01119241505040E1F723303105C0F43D
:106DD0002130310508F58EE3E3E4F2E0D7010190BC
:106DE0000D928A95E1F785E5C150DE4F8883CF5F2C
:106DF000D1408AEAC050DE4F8883C050D2408AC05A
:106E00002330310591F580EAEDE4F1E0D7010190FE
:106E10000D928A95E1F77EC048EF5FE060E070E098
:106E2000C701CDDE4FEF5FE061E070E0C701C7DE74
:106E30006091A7017091A80110E0CB0101966C014F
:106E40001C3011F0AC0102C04FEF5FE0C701B7DEAC
:106E50001F5FB6011D3089F76091E7017091E8016D
:106E60004FEF5FE0C701ABDE55C08091A701909165
:106E7000A8018150904C880F991F880F991F2817DF
:106E8000390770F48091E7019091E8018150904CAE
:106E9000880F991F880F991F28173907E8F43AC0FF
:106EA000AC014D5C5F4F4217530760F3F901E81BDB
:106EB000F90BCF01982F8827990FAE014F5F5D4FD7
:106EC000D7018E199F09FC01EA0FFB1FE491ED9396
:106ED000A417B507C1F7D6CFAC014F5F5F4F42177C
:106EE0005307C0F08901081B190B102F0027110F41
:106EF0005E01FFEFAF1AFDEFBF0A67010E191F0910
:106F0000C8018C0D9D1D8AD1F60181936F01EA1590
:106F1000FB05B1F740E050E060E072E0C701BED190
:106F20008091E8008E778093E800DE5F0FB6F894DA
:106F3000DEBF0FBECDBFDF91CF911F910F91FF90AC
:0C6F4000EF90DF90CF90BF90AF900895CD
:1070000055C000008AC0000088C0000086C0000093
:1070100084C0000082C0000080C000007EC000006C
:107020007CC000007AC000002EC30000E4C3000052
:1070300074C0000072C0000070C000006EC000008C
:107040006CC000006AC0000068C0000066C000009C
:107050006AC0000062C0000060C000005EC00000A6
:107060005CC000005AC0000058C0000056C00000BC
:1070700054C0000052C0000050C000004EC00000CC
:107080004CC000004AC0000048C0000046C00000DC
:1070900044C0000042C0000040C000003EC00000EC
:1070A0003CC000003AC0000038C0000011241FBEE0
:1070B000CFEFDAE0DEBFCDBF69B120E030E0F9010B
:1070C0004591549164FD14C04F3F5F4F89F084B7E0
:1070D000877F84BF88E10FB6F89480936000109298
:1070E00060000FBE10928E0210928D02F901099578
:1070F00012E0A0E0B1E0EEEDFDE702C005900D92D8
:10710000A238B107D9F712E0A2E8B2E001C01D929F
:10711000AD38B107E1F77CDB60C672CF98B19F77DD
:10712000892B88B908951F920F920FB60F921124E0
:107130008F939F939091CF0080910001890F80934E
:10714000CF008091CF00811109C0809100011816F5
:1071500014F48EEF01C082E0809300019F918F9123
:107160000F900FBE0F901F90189507B600FCFDCF33
:10717000F999FECF23E0FB0120935700E89507B66D
:1071800000FCFDCF81E180935700E895089507B694
:1071900000FCFDCFF999FECF25E0FB0120935700BD
:1071A000E89507B600FCFDCF81E180935700E89594
:1071B000089507B600FCFDCFF999FECF21E0FB0151
:1071C0000A0120935700E8951124089521E2FC015B
:1071D000209357008491089529E0FC0120935700E3
:1071E00084910895E1E0F0E089E080935700849174
:1071F000089507B600FCFDCFF999FECF809599E080
:10720000E1E0F0E0082E90935700E8950895909102
:10721000C80095FFFCCF8093CE000895C4C5CBC5B0
:10722000EF92FF920F931F93CF93DF93EC017B01BB
:10723000A1D181112CC0E114F10429F0F701808162
:107240009181C81BD90B00E010E02097F9F08091E4
:10725000E80085FD15C08091E8008E778093E800F6
:10726000E114F10449F0F70180819181080F191FA1
:107270001183008385E00BC07DD1882331F307C0E3
:107280001092F10021970F5F1F4FDFCF80E0DF9159
:10729000CF911F910F91FF90EF900895CF92DF92C1
:1072A000EF92FF920F931F93CF93DF93EC018B012B
:1072B0006A0160D1811132C0C114D10439F0F601E4
:1072C00080819181081B190BC80FD91FE12CF12C6B
:1072D0000115110511F18091E80085FD15C080911F
:1072E000E8008E778093E800C114D10449F0F601DC
:1072F00080819181E80EF91EF182E08285E00EC066
:1073000039D1882329F30AC089918093F100015073
:107310001109FFEFEF1AFF0ADBCF80E0DF91CF9179
:107320001F910F91FF90EF90DF90CF900895CF9233
:10733000DF92EF92FF920F931F93CF93DF93EC01B5
:107340008B016A0117D1811132C0C114D10439F007
:10735000F60180819181081B190BC80FD91FE12C00
:10736000F12C0115110511F18091E80085FD15C082
:107370008091E8008B778093E800C114D10449F034
:10738000F60180819181E80EF91EF182E08285E0AC
:107390000EC0F0D0882329F30AC08091F1008993B0
:1073A00001501109FFEFEF1AFF0ADBCF80E0DF91F8
:1073B000CF911F910F91FF90EF90DF90CF900895A4
:1073C00020918B0230918C022617370748F0611507
:1073D000710539F42091E8002E772093E80001C070
:1073E000B90140E061157105A1F12EB3222309F422
:1073F00042C0253009F441C02091E80023FD3FC080
:107400002091E80022FD31C02091E80020FFEACF62
:107410004091F3002091F20030E0342BFC01CF01C9
:107420006115710559F02830310540F48191809340
:10743000F100615071092F5F3F4FF1CF41E02830DB
:10744000310509F040E02091E8002E772093E80014
:10745000C9CF4111CACF09C08EB3882361F08530EE
:1074600061F08091E80083FD0AC08091E80082FF0E
:10747000F3CF80E0089582E0089583E0089581E0ED
:1074800008958F708093E900EBEEF0E080818160D9
:107490008083EDEEF0E010826093EC0040838091F9
:1074A000EE00881F8827881F0895EF92FF920F93A0
:1074B0001F93CF93DF93E62EEC018C010C5F1F4FDF
:1074C000F12CFE1491F15881552351F1F8012081DE
:1074D00069817A8131979081852F8F70873010F084
:1074E00080E024C0223010F442E001C046E0E8E031
:1074F000F0E020E0E617F70720F42F5FEE0FFF1F04
:10750000F9CF2295207F422BF0E49F9F9001112418
:10751000551F5527551F652F622BB3DF882301F3B5
:10752000F39425960B5F1F4FCCCF81E0DF91CF9175
:107530001F910F91FF90EF9008958091850287FF32
:107540000FC08091E80082FD04C08EB38111F9CF95
:1075500010C08091E8008B770AC08EB3882349F071
:107560008091E80080FFF9CF8091E8008E778093CA
:10757000E80008952091E4003091E50095E64091FF
:10758000EC00842F817040FF21C08091E80080FDD5
:107590001BC08EB3882391F0853091F08091EB0071
:1075A00085FD10C04091E4005091E500421753075B
:1075B00031F39A01915019F784E0089582E008951B
:1075C00083E0089581E0089580E008954091E80007
:1075D00042FFDFCF08950F931F93CF93DF9346D0E1
:1075E0004DD0C8EDD0E088818F778883888180680E
:1075F000888388818F7D888319BC1EBA109283028C
:1076000000EE10E0F80180818B7F808388818160AB
:10761000888342E060E080E034DFE1EEF0E08081EA
:107620008E7F8083E2EEF0E08081816080838081C4
:1076300088608083F80180818E7F8083888180616B
:107640008883DF91CF911F910F910895E8EDF0E0CD
:1076500080818F7E8083E7EDF0E080818160808390
:1076600084E082BF81E080938402B5CFE8EDF0E052
:1076700080818E7F80831092E20008951092DA005C
:107680001092E10008951F920F920FB60F921124ED
:107690002F933F934F935F936F937F938F939F931A
:1076A000AF93BF93EF93FF938091DA0080FF1BC0ED
:1076B0008091D80080FF17C08091DA008E7F809380
:1076C000DA008091D90080FF0BC080E189BD82E1A2
:1076D00089BD09B400FEFDCF81E08EBBECD803C0AC
:1076E00019BC1EBAEAD88091E10080FF17C08091D2
:1076F000E20080FF13C08091E2008E7F8093E20061
:107700008091E20080618093E2008091D8008062E5
:107710008093D80019BC85E08EBBB7D18091E10081
:1077200084FF2EC08091E20084FF2AC080E189BDE1
:1077300082E189BD09B400FEFDCF8091D8008F7D24
:107740008093D8008091E1008F7E8093E10080914A
:10775000E2008F7E8093E2008091E200816080935E
:10776000E20080918302882311F084E007C08091B9
:10777000E30087FD02C081E001C083E08EBB85D1BC
:107780008091E10083FF26C08091E20083FF22C048
:107790008091E100877F8093E10082E08EBB1092B0
:1077A00083028091E1008E7F8093E1008091E2006E
:1077B0008E7F8093E2008091E20080618093E200FE
:1077C00042E060E080E05DDE8091F00088608093C0
:1077D000F0005BD1FF91EF91BF91AF919F918F919D
:1077E0007F916F915F914F913F912F910F900FBEBD
:1077F0000F901F9018951F920F920FB60F921124A1
:107800002F933F934F935F936F937F938F939F93A8
:10781000AF93BF93CF93DF93EF93FF93C091E900B2
:10782000CF708091EC00D82FD17080FDD0E81092FD
:10783000E9008091F000877F8093F00078941ED05B
:107840001092E9008091F00088608093F000CD2BC9
:10785000CF70C093E900FF91EF91DF91CF91BF917D
:10786000AF919F918F917F916F915F914F913F91D8
:107870002F910F900FBE0F901F9018951F93CF93CD
:10788000DF9300D0CDB7DEB7E5E8F2E088E08E0FF9
:107890009091F10091938E13FBCF1BD88091E8005B
:1078A00083FFDFC08091850290918602953009F4B4
:1078B00066C030F4913059F168F0933041F1D1C095
:1078C000983009F4A0C0993009F4AFC0963009F09F
:1078D000C8C076C0803881F0823809F0C2C080917B
:1078E00089028F708093E9008091EB0085FB8827E7
:1078F00080F91092E90001C080E09091E800977F44
:107900009093E8008093F1001092F10087C0282F37
:107910002D7F09F0A6C0823009F0A3C080918702B4
:10792000811127C0809189028F7009F49AC08093D9
:10793000E9002091EB0020FF1CC0933021F48091DE
:10794000EB00806214C09091EB0090619093EB008B
:1079500021E030E0A90102C0440F551F8A95E2F7EB
:107960004093EA001092EA008091EB0088608093D7
:10797000EB001092E9008091E800877F52C08111EE
:1079800070C0109187021F778091E3008078812B6F
:107990008093E3008091E800877F8093E800CDDD4D
:1079A0008091E80080FFFCCF8091E30080688093A5
:1079B000E300111102C082E001C083E08EBB51C020
:1079C0008058823008F04DC06091890270918A021F
:1079D000AE014F5F5F4F80918702909188020E94B5
:1079E0007D34BC01892B09F43CC09091E800977F5D
:1079F0009093E80089819A81E3DC8091E8008B779D
:107A00008093E8002EC0803861F58091E800877F80
:107A10008093E800809183028093F1008091E800D8
:107A20008E778093E80089DD1CC081111AC0909187
:107A300087029230B0F48091E800877F8093E8005D
:107A4000909383027ADD80918302811106C0809138
:107A5000E30087FD02C081E001C084E08EBB0E948C
:107A60005F348091E80083FF0AC08091E800877F3F
:107A70008093E8008091EB0080628093EB000F9090
:107A80000F90DF91CF911F9108950895CF938EB3FA
:107A9000882399F0C091E900CF709091EC00892F74
:107AA000817090FD80E8C82B1092E9008091E80079
:107AB00083FDE4DECF70C093E900CF910895CF93AA
:107AC000DF932091E80023FF38C0FC01208130E0E3
:107AD0004091890250918A024217530771F5209113
:107AE00086022E3F81F02F3F41F520918502213201
:107AF00021F5EC018091E800877F8093E8001DDD8F
:107B000081E088AF1AC020918502213AB1F420911A
:107B1000E800277F2093E8002091E80020FFFCCFB9
:107B2000FC01838581508093F1008091E8008E777D
:107B30008093E800DF91CF9100CDDF91CF91089540
:107B4000CF93DF93EC01FC013C968DE2DF011D92A7
:107B50008A95E9F782E08C83898761E0CE010196FE
:107B6000A4DC882331F061E0CE010696DF91CF914D
:107B70009CCC80E0DF91CF910895EF92FF920F931C
:107B80001F93CF93DF9300D0CDB7DEB72EB3243051
:107B900009F000C18C01FC0186818F708093E9009F
:107BA0008091E80082FFBDC086818F708093E900DC
:107BB0001A8219827801FCE0EF0EF11CAE014F5FD2
:107BC0005F4F6FE070E0C701B2DBF801853021F450
:107BD00080AD882399F3A5C084859585A685B78552
:107BE00085359345A244B34461F4F801918D8385B2
:107BF000981738F4808D8F7121F4828D81508031F7
:107C000080F08091EB0080628093EB00F80181812D
:107C10008F708093E9008091EB0080628093EB008D
:107C200080C01A8219827801FBE1EF0EF11CF80185
:107C3000628D70E0AE014F5F5F4FC70178DB85302A
:107C400029F4F80180AD882391F36BC08091E8009E
:107C50008B778093E800F801808D87FF04C08181D5
:107C60008F708093E900C8010E946D3491E09827DD
:107C7000F80197AB45E553E562E473E543A754A7E4
:107C800065A776A7408951896289738947A750AB58
:107C900061AB72AB448955896689778943AB54AB34
:107CA00065AB76AB811109C0452B462B472B29F0DC
:107CB0008091EB0080628093EB00F80186818F70E9
:107CC0008093E9008091EB00F80185FF04C080AD4E
:107CD0008823C1F326C081818F708093E900809151
:107CE000EB0085FF05C0F80180AD8823C1F319C002
:107CF0001A8219827801FBE2EF0EF11CAE014F5F90
:107D00005F4F6DE070E0C701C9DA853029F4F801F2
:107D100080AD882399F305C08091E8008E77809329
:107D2000E800F80180AD8823A9F126812F7081E059
:107D300090E0AC0102C0440F551F2A95E2F7409332
:107D4000EA001092EA0021812F7001C0880F2A9565
:107D5000EAF78093EA001092EA0086818F708093A0
:107D6000E9008091EB0080618093EB008091EB0053
:107D700088608093EB0081818F708093E90080910F
:107D8000EB0080618093EB008091EB008860809332
:107D9000EB0010AE0F900F90DF91CF911F910F91DC
:107DA000FF90EF900895F999FECF92BD81BDF89AAA
:107DB000992780B50895262FF999FECF92BD81BDF0
:107DC000F89A019700B4021639F01FBA20BD0FB619
:0E7DD000F894FA9AF99A0FBE0895F894FFCF2E
:107DDE000201008340000001044000000101000088
:107DEE000000000000000000000000000000000085
:107DFE000000000000000000000000000000000075
:107E0E0000000000000000000000007000000000F4
:107E1E0000000A000000000000000000004D31309C
:107E2E002D4120200000000008000000000000008E
:107E3E0000000000000000000000000000414600AD
:107E4E004C004100530048000F00262E004200490E
:107E5E00004E0000000000000000000000464C41F3
:107E6E00534820202042494E000000000000000030
:107E7E0000000020084E120200006800004145007C
:107E8E004500500052004F000F00144D002E0042CE
:107E9E000049004E00000000000000000045455063
:107EAE00524F4D202042494E0000000000000000BD
:107EBE0000000020084E120F00FF030000090220F0
:107ECE00000101008032090400000208065000077C
:107EDE00058302400005070504024000051201104B
:107EEE000100000008EB0345200100000000010026
:107EFE008000021F0000004D616368696E652042BC
:107F0E006F6F746C6F61646572000000000000306A
:107F1E002E3030EB3C906D6B646F73667300000215
:107F2E000401000210005600F801001600010000C6
:107F3E0000000000000000000029785634124D3178
:107F4E00302D4120200000000046415431322020C7
:027F5E00200001
:107FA000E4C8F5C806C912C917C91CC922C9089571
:087FB000089508950895089555
:107FE000DFCFDFCFDFCFDFCFDFCFDFCFDFCFDFCF21
:087FF000DFCFDFCFDFCFDFCFD1
:087FF8000070000030DFFBDC2B
:040000030000700089
:00000001FF
